{
  "_format": "hh-sol-artifact-1",
  "contractName": "URLComplaint",
  "sourceName": "contracts/URLComplaint.sol",
  "abi": [
    {
      "inputs": [],
      "name": "InvalidInitialization",
      "type": "error"
    },
    {
      "inputs": [],
      "name": "NotInitializing",
      "type": "error"
    },
    {
      "anonymous": false,
      "inputs": [
        {
          "indexed": false,
          "internalType": "uint64",
          "name": "version",
          "type": "uint64"
        }
      ],
      "name": "Initialized",
      "type": "event"
    },
    {
      "anonymous": false,
      "inputs": [
        {
          "indexed": false,
          "internalType": "string",
          "name": "url",
          "type": "string"
        },
        {
          "indexed": false,
          "internalType": "uint256",
          "name": "timestamp",
          "type": "uint256"
        },
        {
          "indexed": false,
          "internalType": "string",
          "name": "siteHash",
          "type": "string"
        },
        {
          "indexed": false,
          "internalType": "string",
          "name": "prevSiteHash",
          "type": "string"
        }
      ],
      "name": "PhishingSiteAdded",
      "type": "event"
    },
    {
      "anonymous": false,
      "inputs": [
        {
          "indexed": false,
          "internalType": "string",
          "name": "url",
          "type": "string"
        },
        {
          "indexed": false,
          "internalType": "string",
          "name": "userId",
          "type": "string"
        },
        {
          "indexed": false,
          "internalType": "string",
          "name": "email",
          "type": "string"
        },
        {
          "indexed": false,
          "internalType": "uint256",
          "name": "count",
          "type": "uint256"
        }
      ],
      "name": "URLReported",
      "type": "event"
    },
    {
      "inputs": [
        {
          "internalType": "string",
          "name": "url",
          "type": "string"
        },
        {
          "internalType": "string",
          "name": "siteHash",
          "type": "string"
        }
      ],
      "name": "addPhishingSite",
      "outputs": [],
      "stateMutability": "nonpayable",
      "type": "function"
    },
    {
      "inputs": [
        {
          "internalType": "string",
          "name": "url",
          "type": "string"
        }
      ],
      "name": "getComplaintCount",
      "outputs": [
        {
          "internalType": "uint256",
          "name": "",
          "type": "uint256"
        }
      ],
      "stateMutability": "view",
      "type": "function"
    },
    {
      "inputs": [],
      "name": "getLastPhishingSite",
      "outputs": [
        {
          "internalType": "string",
          "name": "",
          "type": "string"
        },
        {
          "internalType": "uint256",
          "name": "",
          "type": "uint256"
        },
        {
          "internalType": "string",
          "name": "",
          "type": "string"
        },
        {
          "internalType": "string",
          "name": "",
          "type": "string"
        }
      ],
      "stateMutability": "view",
      "type": "function"
    },
    {
      "inputs": [
        {
          "internalType": "string",
          "name": "siteHash",
          "type": "string"
        }
      ],
      "name": "getPhishingSite",
      "outputs": [
        {
          "components": [
            {
              "internalType": "string",
              "name": "url",
              "type": "string"
            },
            {
              "internalType": "uint256",
              "name": "timestamp",
              "type": "uint256"
            },
            {
              "internalType": "string",
              "name": "siteHash",
              "type": "string"
            },
            {
              "internalType": "string",
              "name": "prevSiteHash",
              "type": "string"
            }
          ],
          "internalType": "struct URLComplaint.PhishingSite",
          "name": "",
          "type": "tuple"
        }
      ],
      "stateMutability": "view",
      "type": "function"
    },
    {
      "inputs": [],
      "name": "initialize",
      "outputs": [],
      "stateMutability": "nonpayable",
      "type": "function"
    },
    {
      "inputs": [
        {
          "internalType": "string",
          "name": "url",
          "type": "string"
        },
        {
          "internalType": "string",
          "name": "userId",
          "type": "string"
        },
        {
          "internalType": "string",
          "name": "email",
          "type": "string"
        }
      ],
      "name": "reportURL",
      "outputs": [],
      "stateMutability": "nonpayable",
      "type": "function"
    }
  ],
  "bytecode": "0x6080604052348015600f57600080fd5b506117c78061001f6000396000f3fe608060405234801561001057600080fd5b50600436106100625760003560e01c80630e78d3ec146100675780633efa6eea146100975780634c3c3649146100b35780638129fc1c146100cf578063a8c61938146100d9578063b648eb00146100fa575b600080fd5b610081600480360381019061007c9190610d04565b61012a565b60405161008e9190610d66565b60405180910390f35b6100b160048036038101906100ac9190610d81565b610154565b005b6100cd60048036038101906100c89190610e28565b610365565b005b6100d7610533565b005b6100e16106f9565b6040516100f19493929190610f1f565b60405180910390f35b610114600480360381019061010f9190610d04565b610962565b6040516101219190611043565b60405180910390f35b6000808260405161013b91906110a1565b9081526020016040518091039020805490509050919050565b60005b60008460405161016791906110a1565b90815260200160405180910390208054905081101561025b578260405160200161019191906110a1565b604051602081830303815290604052805190602001206000856040516101b791906110a1565b908152602001604051809103902082815481106101d7576101d66110b8565b5b90600052602060002090600302016001016040516020016101f891906111df565b604051602081830303815290604052805190602001200361024e576040517f08c379a000000000000000000000000000000000000000000000000000000000815260040161024590611268565b60405180910390fd5b8080600101915050610157565b5060008360405161026c91906110a1565b9081526020016040518091039020604051806060016040528085815260200184815260200183815250908060018154018082558091505060019003906000526020600020906003020160009091909190915060008201518160000190816102d3919061141f565b5060208201518160010190816102e9919061141f565b5060408201518160020190816102ff919061141f565b5050507f3dee6310b759187b5ec0c10ca6594a526e45b476ab865b33cc0c6a20a88f0d8f83838360008760405161033691906110a1565b90815260200160405180910390208054905060405161035894939291906114f1565b60405180910390a1505050565b600060028260405161037791906110a1565b908152602001604051809103902060010154146103c9576040517f08c379a00000000000000000000000000000000000000000000000000000000081526004016103c0906115bd565b60405180910390fd5b6040518060800160405280838152602001428152602001828152602001600380546103f390611116565b80601f016020809104026020016040519081016040528092919081815260200182805461041f90611116565b801561046c5780601f106104415761010080835404028352916020019161046c565b820191906000526020600020905b81548152906001019060200180831161044f57829003601f168201915b505050505081525060028260405161048491906110a1565b908152602001604051809103902060008201518160000190816104a7919061141f565b506020820151816001015560408201518160020190816104c7919061141f565b5060608201518160030190816104dd919061141f565b5090505080600390816104f0919061141f565b507f9182b6d74bc60ec31ea001edcf3b0088c5bd318d7e3e4db8504de02149e3646782428360036040516105279493929190611661565b60405180910390a15050565b600061053d610b5a565b905060008160000160089054906101000a900460ff1615905060008260000160009054906101000a900467ffffffffffffffff1690506000808267ffffffffffffffff1614801561058b5750825b9050600060018367ffffffffffffffff161480156105c0575060003073ffffffffffffffffffffffffffffffffffffffff163b145b9050811580156105ce575080155b15610605576040517ff92ee8a900000000000000000000000000000000000000000000000000000000815260040160405180910390fd5b60018560000160006101000a81548167ffffffffffffffff021916908367ffffffffffffffff16021790555083156106555760018560000160086101000a81548160ff0219169083151502179055505b33600160006101000a81548173ffffffffffffffffffffffffffffffffffffffff021916908373ffffffffffffffffffffffffffffffffffffffff16021790555083156106f25760008560000160086101000a81548160ff0219169083151502179055507fc7f505b2f371ae2175ee4913f4499e1f2633a7b5936321eed1cdaeb6115181d260016040516106e9919061170a565b60405180910390a15b5050505050565b6060600060608060006003805461070f90611116565b905011610751576040517f08c379a000000000000000000000000000000000000000000000000000000000815260040161074890611771565b60405180910390fd5b60006002600360405161076491906111df565b908152602001604051809103902060405180608001604052908160008201805461078d90611116565b80601f01602080910402602001604051908101604052809291908181526020018280546107b990611116565b80156108065780601f106107db57610100808354040283529160200191610806565b820191906000526020600020905b8154815290600101906020018083116107e957829003601f168201915b505050505081526020016001820154815260200160028201805461082990611116565b80601f016020809104026020016040519081016040528092919081815260200182805461085590611116565b80156108a25780601f10610877576101008083540402835291602001916108a2565b820191906000526020600020905b81548152906001019060200180831161088557829003601f168201915b505050505081526020016003820180546108bb90611116565b80601f01602080910402602001604051908101604052809291908181526020018280546108e790611116565b80156109345780601f1061090957610100808354040283529160200191610934565b820191906000526020600020905b81548152906001019060200180831161091757829003601f168201915b5050505050815250509050806000015181602001518260400151836060015194509450945094505090919293565b61096a610b82565b60028260405161097a91906110a1565b90815260200160405180910390206040518060800160405290816000820180546109a390611116565b80601f01602080910402602001604051908101604052809291908181526020018280546109cf90611116565b8015610a1c5780601f106109f157610100808354040283529160200191610a1c565b820191906000526020600020905b8154815290600101906020018083116109ff57829003601f168201915b5050505050815260200160018201548152602001600282018054610a3f90611116565b80601f0160208091040260200160405190810160405280929190818152602001828054610a6b90611116565b8015610ab85780601f10610a8d57610100808354040283529160200191610ab8565b820191906000526020600020905b815481529060010190602001808311610a9b57829003601f168201915b50505050508152602001600382018054610ad190611116565b80601f0160208091040260200160405190810160405280929190818152602001828054610afd90611116565b8015610b4a5780601f10610b1f57610100808354040283529160200191610b4a565b820191906000526020600020905b815481529060010190602001808311610b2d57829003601f168201915b5050505050815250509050919050565b60007ff0c57e16840df040f15088dc2f81fe391c3923bec73e23a9662efc9c229c6a00905090565b6040518060800160405280606081526020016000815260200160608152602001606081525090565b6000604051905090565b600080fd5b600080fd5b600080fd5b600080fd5b6000601f19601f8301169050919050565b7f4e487b7100000000000000000000000000000000000000000000000000000000600052604160045260246000fd5b610c1182610bc8565b810181811067ffffffffffffffff82111715610c3057610c2f610bd9565b5b80604052505050565b6000610c43610baa565b9050610c4f8282610c08565b919050565b600067ffffffffffffffff821115610c6f57610c6e610bd9565b5b610c7882610bc8565b9050602081019050919050565b82818337600083830152505050565b6000610ca7610ca284610c54565b610c39565b905082815260208101848484011115610cc357610cc2610bc3565b5b610cce848285610c85565b509392505050565b600082601f830112610ceb57610cea610bbe565b5b8135610cfb848260208601610c94565b91505092915050565b600060208284031215610d1a57610d19610bb4565b5b600082013567ffffffffffffffff811115610d3857610d37610bb9565b5b610d4484828501610cd6565b91505092915050565b6000819050919050565b610d6081610d4d565b82525050565b6000602082019050610d7b6000830184610d57565b92915050565b600080600060608486031215610d9a57610d99610bb4565b5b600084013567ffffffffffffffff811115610db857610db7610bb9565b5b610dc486828701610cd6565b935050602084013567ffffffffffffffff811115610de557610de4610bb9565b5b610df186828701610cd6565b925050604084013567ffffffffffffffff811115610e1257610e11610bb9565b5b610e1e86828701610cd6565b9150509250925092565b60008060408385031215610e3f57610e3e610bb4565b5b600083013567ffffffffffffffff811115610e5d57610e5c610bb9565b5b610e6985828601610cd6565b925050602083013567ffffffffffffffff811115610e8a57610e89610bb9565b5b610e9685828601610cd6565b9150509250929050565b600081519050919050565b600082825260208201905092915050565b60005b83811015610eda578082015181840152602081019050610ebf565b60008484015250505050565b6000610ef182610ea0565b610efb8185610eab565b9350610f0b818560208601610ebc565b610f1481610bc8565b840191505092915050565b60006080820190508181036000830152610f398187610ee6565b9050610f486020830186610d57565b8181036040830152610f5a8185610ee6565b90508181036060830152610f6e8184610ee6565b905095945050505050565b600082825260208201905092915050565b6000610f9582610ea0565b610f9f8185610f79565b9350610faf818560208601610ebc565b610fb881610bc8565b840191505092915050565b610fcc81610d4d565b82525050565b60006080830160008301518482036000860152610fef8282610f8a565b91505060208301516110046020860182610fc3565b506040830151848203604086015261101c8282610f8a565b915050606083015184820360608601526110368282610f8a565b9150508091505092915050565b6000602082019050818103600083015261105d8184610fd2565b905092915050565b600081905092915050565b600061107b82610ea0565b6110858185611065565b9350611095818560208601610ebc565b80840191505092915050565b60006110ad8284611070565b915081905092915050565b7f4e487b7100000000000000000000000000000000000000000000000000000000600052603260045260246000fd5b7f4e487b7100000000000000000000000000000000000000000000000000000000600052602260045260246000fd5b6000600282049050600182168061112e57607f821691505b602082108103611141576111406110e7565b5b50919050565b60008190508160005260206000209050919050565b6000815461116981611116565b6111738186611065565b9450600182166000811461118e57600181146111a3576111d6565b60ff19831686528115158202860193506111d6565b6111ac85611147565b60005b838110156111ce578154818901526001820191506020810190506111af565b838801955050505b50505092915050565b60006111eb828461115c565b915081905092915050565b7f557365722068617320616c7265616479207265706f727465642074686973205560008201527f524c210000000000000000000000000000000000000000000000000000000000602082015250565b6000611252602383610eab565b915061125d826111f6565b604082019050919050565b6000602082019050818103600083015261128181611245565b9050919050565b60006020601f8301049050919050565b600082821b905092915050565b6000600883026112d57fffffffffffffffffffffffffffffffffffffffffffffffffffffffffffffffff82611298565b6112df8683611298565b95508019841693508086168417925050509392505050565b6000819050919050565b600061131c61131761131284610d4d565b6112f7565b610d4d565b9050919050565b6000819050919050565b61133683611301565b61134a61134282611323565b8484546112a5565b825550505050565b600090565b61135f611352565b61136a81848461132d565b505050565b5b8181101561138e57611383600082611357565b600181019050611370565b5050565b601f8211156113d3576113a481611147565b6113ad84611288565b810160208510156113bc578190505b6113d06113c885611288565b83018261136f565b50505b505050565b600082821c905092915050565b60006113f6600019846008026113d8565b1980831691505092915050565b600061140f83836113e5565b9150826002028217905092915050565b61142882610ea0565b67ffffffffffffffff81111561144157611440610bd9565b5b61144b8254611116565b611456828285611392565b600060209050601f8311600181146114895760008415611477578287015190505b6114818582611403565b8655506114e9565b601f19841661149786611147565b60005b828110156114bf5784890151825560018201915060208501945060208101905061149a565b868310156114dc57848901516114d8601f8916826113e5565b8355505b6001600288020188555050505b505050505050565b6000608082019050818103600083015261150b8187610ee6565b9050818103602083015261151f8186610ee6565b905081810360408301526115338185610ee6565b90506115426060830184610d57565b95945050505050565b7f54686973207369746520697320616c7265616479206d61726b6564206173207060008201527f68697368696e6721000000000000000000000000000000000000000000000000602082015250565b60006115a7602883610eab565b91506115b28261154b565b604082019050919050565b600060208201905081810360008301526115d68161159a565b9050919050565b600081546115ea81611116565b6115f48186610eab565b9450600182166000811461160f576001811461162557611658565b60ff198316865281151560200286019350611658565b61162e85611147565b60005b8381101561165057815481890152600182019150602081019050611631565b808801955050505b50505092915050565b6000608082019050818103600083015261167b8187610ee6565b905061168a6020830186610d57565b818103604083015261169c8185610ee6565b905081810360608301526116b081846115dd565b905095945050505050565b6000819050919050565b600067ffffffffffffffff82169050919050565b60006116f46116ef6116ea846116bb565b6112f7565b6116c5565b9050919050565b611704816116d9565b82525050565b600060208201905061171f60008301846116fb565b92915050565b7f4e6f207068697368696e67207369746573207265636f726465642e0000000000600082015250565b600061175b601b83610eab565b915061176682611725565b602082019050919050565b6000602082019050818103600083015261178a8161174e565b905091905056fea26469706673582212205af6bdd401cdef8db02ce01b0f607f16a5a8915fac0e32f83f376b0bb663ba1f64736f6c634300081c0033",
  "linkReferences": {},
  "deployedLinkReferences": {}
}