{
  "_format": "hh-sol-artifact-1",
  "contractName": "URLComplaint",
  "sourceName": "contracts/URLComplaint.sol",
  "abi": [
    {
      "anonymous": false,
      "inputs": [
        {
          "indexed": false,
          "internalType": "string",
          "name": "url",
          "type": "string"
        },
        {
          "indexed": false,
          "internalType": "string",
          "name": "userId",
          "type": "string"
        },
        {
          "indexed": false,
          "internalType": "string",
          "name": "email",
          "type": "string"
        },
        {
          "indexed": false,
          "internalType": "uint256",
          "name": "count",
          "type": "uint256"
        }
      ],
      "name": "URLReported",
      "type": "event"
    },
    {
      "inputs": [
        {
          "internalType": "string",
          "name": "",
          "type": "string"
        },
        {
          "internalType": "uint256",
          "name": "",
          "type": "uint256"
        }
      ],
      "name": "complaints",
      "outputs": [
        {
          "internalType": "string",
          "name": "url",
          "type": "string"
        },
        {
          "internalType": "string",
          "name": "userId",
          "type": "string"
        },
        {
          "internalType": "string",
          "name": "email",
          "type": "string"
        }
      ],
      "stateMutability": "view",
      "type": "function"
    },
    {
      "inputs": [
        {
          "internalType": "string",
          "name": "url",
          "type": "string"
        }
      ],
      "name": "getComplaintCount",
      "outputs": [
        {
          "internalType": "uint256",
          "name": "",
          "type": "uint256"
        }
      ],
      "stateMutability": "view",
      "type": "function"
    },
    {
      "inputs": [
        {
          "internalType": "string",
          "name": "url",
          "type": "string"
        },
        {
          "internalType": "string",
          "name": "userId",
          "type": "string"
        },
        {
          "internalType": "string",
          "name": "email",
          "type": "string"
        }
      ],
      "name": "reportURL",
      "outputs": [],
      "stateMutability": "nonpayable",
      "type": "function"
    }
  ],
  "bytecode": "0x6080604052348015600f57600080fd5b50610de18061001f6000396000f3fe608060405234801561001057600080fd5b50600436106100415760003560e01c80630e78d3ec146100465780633efa6eea146100765780637e4e606f14610092575b600080fd5b610060600480360381019061005b919061064e565b6100c4565b60405161006d91906106b0565b60405180910390f35b610090600480360381019061008b91906106cb565b6100ee565b005b6100ac60048036038101906100a7919061079e565b6102ff565b6040516100bb93929190610879565b60405180910390f35b600080826040516100d59190610901565b9081526020016040518091039020805490509050919050565b60005b6000846040516101019190610901565b9081526020016040518091039020805490508110156101f5578260405160200161012b9190610901565b604051602081830303815290604052805190602001206000856040516101519190610901565b9081526020016040518091039020828154811061017157610170610918565b5b90600052602060002090600302016001016040516020016101929190610a3f565b60405160208183030381529060405280519060200120036101e8576040517f08c379a00000000000000000000000000000000000000000000000000000000081526004016101df90610ac8565b60405180910390fd5b80806001019150506100f1565b506000836040516102069190610901565b90815260200160405180910390206040518060600160405280858152602001848152602001838152509080600181540180825580915050600190039060005260206000209060030201600090919091909150600082015181600001908161026d9190610c7f565b5060208201518160010190816102839190610c7f565b5060408201518160020190816102999190610c7f565b5050507f3dee6310b759187b5ec0c10ca6594a526e45b476ab865b33cc0c6a20a88f0d8f8383836000876040516102d09190610901565b9081526020016040518091039020805490506040516102f29493929190610d51565b60405180910390a1505050565b600082805160208101820180518482526020830160208501208183528095505050505050818154811061033157600080fd5b90600052602060002090600302016000915091505080600001805461035590610976565b80601f016020809104026020016040519081016040528092919081815260200182805461038190610976565b80156103ce5780601f106103a3576101008083540402835291602001916103ce565b820191906000526020600020905b8154815290600101906020018083116103b157829003601f168201915b5050505050908060010180546103e390610976565b80601f016020809104026020016040519081016040528092919081815260200182805461040f90610976565b801561045c5780601f106104315761010080835404028352916020019161045c565b820191906000526020600020905b81548152906001019060200180831161043f57829003601f168201915b50505050509080600201805461047190610976565b80601f016020809104026020016040519081016040528092919081815260200182805461049d90610976565b80156104ea5780601f106104bf576101008083540402835291602001916104ea565b820191906000526020600020905b8154815290600101906020018083116104cd57829003601f168201915b5050505050905083565b6000604051905090565b600080fd5b600080fd5b600080fd5b600080fd5b6000601f19601f8301169050919050565b7f4e487b7100000000000000000000000000000000000000000000000000000000600052604160045260246000fd5b61055b82610512565b810181811067ffffffffffffffff8211171561057a57610579610523565b5b80604052505050565b600061058d6104f4565b90506105998282610552565b919050565b600067ffffffffffffffff8211156105b9576105b8610523565b5b6105c282610512565b9050602081019050919050565b82818337600083830152505050565b60006105f16105ec8461059e565b610583565b90508281526020810184848401111561060d5761060c61050d565b5b6106188482856105cf565b509392505050565b600082601f83011261063557610634610508565b5b81356106458482602086016105de565b91505092915050565b600060208284031215610664576106636104fe565b5b600082013567ffffffffffffffff81111561068257610681610503565b5b61068e84828501610620565b91505092915050565b6000819050919050565b6106aa81610697565b82525050565b60006020820190506106c560008301846106a1565b92915050565b6000806000606084860312156106e4576106e36104fe565b5b600084013567ffffffffffffffff81111561070257610701610503565b5b61070e86828701610620565b935050602084013567ffffffffffffffff81111561072f5761072e610503565b5b61073b86828701610620565b925050604084013567ffffffffffffffff81111561075c5761075b610503565b5b61076886828701610620565b9150509250925092565b61077b81610697565b811461078657600080fd5b50565b60008135905061079881610772565b92915050565b600080604083850312156107b5576107b46104fe565b5b600083013567ffffffffffffffff8111156107d3576107d2610503565b5b6107df85828601610620565b92505060206107f085828601610789565b9150509250929050565b600081519050919050565b600082825260208201905092915050565b60005b83811015610834578082015181840152602081019050610819565b60008484015250505050565b600061084b826107fa565b6108558185610805565b9350610865818560208601610816565b61086e81610512565b840191505092915050565b600060608201905081810360008301526108938186610840565b905081810360208301526108a78185610840565b905081810360408301526108bb8184610840565b9050949350505050565b600081905092915050565b60006108db826107fa565b6108e581856108c5565b93506108f5818560208601610816565b80840191505092915050565b600061090d82846108d0565b915081905092915050565b7f4e487b7100000000000000000000000000000000000000000000000000000000600052603260045260246000fd5b7f4e487b7100000000000000000000000000000000000000000000000000000000600052602260045260246000fd5b6000600282049050600182168061098e57607f821691505b6020821081036109a1576109a0610947565b5b50919050565b60008190508160005260206000209050919050565b600081546109c981610976565b6109d381866108c5565b945060018216600081146109ee5760018114610a0357610a36565b60ff1983168652811515820286019350610a36565b610a0c856109a7565b60005b83811015610a2e57815481890152600182019150602081019050610a0f565b838801955050505b50505092915050565b6000610a4b82846109bc565b915081905092915050565b7f557365722068617320616c7265616479207265706f727465642074686973205560008201527f524c210000000000000000000000000000000000000000000000000000000000602082015250565b6000610ab2602383610805565b9150610abd82610a56565b604082019050919050565b60006020820190508181036000830152610ae181610aa5565b9050919050565b60006020601f8301049050919050565b600082821b905092915050565b600060088302610b357fffffffffffffffffffffffffffffffffffffffffffffffffffffffffffffffff82610af8565b610b3f8683610af8565b95508019841693508086168417925050509392505050565b6000819050919050565b6000610b7c610b77610b7284610697565b610b57565b610697565b9050919050565b6000819050919050565b610b9683610b61565b610baa610ba282610b83565b848454610b05565b825550505050565b600090565b610bbf610bb2565b610bca818484610b8d565b505050565b5b81811015610bee57610be3600082610bb7565b600181019050610bd0565b5050565b601f821115610c3357610c04816109a7565b610c0d84610ae8565b81016020851015610c1c578190505b610c30610c2885610ae8565b830182610bcf565b50505b505050565b600082821c905092915050565b6000610c5660001984600802610c38565b1980831691505092915050565b6000610c6f8383610c45565b9150826002028217905092915050565b610c88826107fa565b67ffffffffffffffff811115610ca157610ca0610523565b5b610cab8254610976565b610cb6828285610bf2565b600060209050601f831160018114610ce95760008415610cd7578287015190505b610ce18582610c63565b865550610d49565b601f198416610cf7866109a7565b60005b82811015610d1f57848901518255600182019150602085019450602081019050610cfa565b86831015610d3c5784890151610d38601f891682610c45565b8355505b6001600288020188555050505b505050505050565b60006080820190508181036000830152610d6b8187610840565b90508181036020830152610d7f8186610840565b90508181036040830152610d938185610840565b9050610da260608301846106a1565b9594505050505056fea26469706673582212201158e2ce083bfb8804ced1082efd76cd685c00639073b02403a98cf42c51fdb964736f6c634300081c0033",
  "linkReferences": {},
  "deployedLinkReferences": {}
}